:100000000C9462000C948A000C948A000C948A0070
:100010000C948A000C948A000C948A000C948A0038
:100020000C948A000C948A000C948A000C94BB04F3
:100030000C948A000C948A000C948A000C948A0018
:100040000C9471040C948A000C948A000C948A001D
:100050000C948A000C948A000C948A000C948A00F8
:100060000C948A000C948A000000000024002700F1
:100070002A0000000000250028002B0000000000DE
:1000800023002600290004040404040404040202DA
:100090000202020203030303030301020408102007
:1000A0004080010204081020010204081020000012
:1000B0000008000201000003040700000000000027
:1000C0000000C40911241FBECFEFD8E0DEBFCDBFB2
:1000D00011E0A0E0B1E0ECE9F5E102C005900D927D
:1000E000AE3FB107D9F722E0AEEFB1E001C01D92FB
:1000F000AB3BB207E1F710E0C2E6D0E004C02197C5
:10010000FE010E94C60AC136D107C9F70E947705D1
:100110000C94CC0A0C940000CF92DF92EF92FF92E5
:10012000DC01A03282E0B807D4F5A53BB10514F09C
:10013000A4EBB0E04091A10228E830E0241B310993
:1001400047FD3395220F331F220F331F6901330FF1
:10015000EE08FF084091A20228E532E0241B310995
:1001600047FD3395220F331F220F331F032E000C40
:10017000440B550B2C193D094E095F09B7FF02C00E
:10018000B0E0A0E00E94810A24EB30E040E050E0C3
:100190000E94570AC20ED31EE41EF51ED601E0913E
:1001A000A002EC3080F52091A10288E890E0821B4B
:1001B000910927FD9395880F991F880F991FA817FC
:1001C000B90784F02091A20288E592E0821B910990
:1001D00027FD9395880F991F880F991FA817B907B6
:1001E0000CF4CD010297880F991F4FB7F8942E2F6A
:1001F00030E0F901EE0FFF1FE20FF31FE458FD4F4F
:10020000928381834FBFFF90EF90DF90CF9008954E
:1002100096E0899FD0011124A35FBD4F90967C93F7
:100220006E935F9791E091969C939197E0917A02FB
:10023000F0917B0290917902992339F0309751F037
:10024000811108C0809129020994309719F05C96B9
:100250008C91FACF0895CF92DF92EF92FF920F9395
:100260001F9396E0899FF0011124E35FFD4F11A2D7
:10027000278D30A12130310551F178F02230310540
:1002800009F451C02330310509F452C01F910F9178
:10029000FF90EF90DF90CF9008956623B9F361E06F
:1002A00070E00E9408012FB7F894809109029091A4
:1002B0000A02A0910B02B0910C022FBF809365023D
:1002C00090936602A0936702B0936802DFCF9FB756
:1002D000F894C0900902D0900A02E0900B02F090CE
:1002E0000C029FBF00916502109166022091670287
:1002F00030916802C01AD10AE20AF30A009177022B
:100300001091780230E020E00C151D052E053F0508
:1003100050F462E070E01F910F91FF90EF90DF903A
:10032000CF900C9408016111B1CF63E070E0F3CF7E
:1003300070E060E0F0CFAF92BF92CF92DF92EF9289
:10034000FF920F931F93CF93DF936C017B018B017F
:10035000040F151FEB015E01AE18BF08C017D107CF
:1003600059F06991D601ED91FC910190F081E02D59
:10037000C6010995892B79F7C501DF91CF911F91AE
:100380000F91FF90EF90DF90CF90BF90AF900895C6
:10039000833081F028F4813099F08230A9F00895FB
:1003A0008730A9F08830C9F08430B1F480918000A2
:1003B0008F7D03C0809180008F77809380000895A7
:1003C00084B58F7784BD089584B58F7DFBCF8091F0
:1003D000B0008F778093B00008958091B0008F7D3A
:1003E000F9CFCF93DF93282F30E0F901E255FF4F8B
:1003F0008491F901E656FF4FD491F901EA57FF4F76
:10040000C491CC23A1F081110E94C801EC2FF0E02F
:10041000EE0FFF1FE458FF4FA591B491EC91ED232F
:1004200081E090E009F480E0DF91CF91089580E0D1
:1004300090E0FACF862F0C94F1011F93CF93DF93B6
:10044000282F30E0F901E255FF4F8491F901E6567B
:10045000FF4FD491F901EA57FF4FC491CC23A9F083
:10046000162F81110E94C801EC2FF0E0EE0FFF1F44
:10047000EE58FF4FA591B4918FB7F894EC911111FC
:1004800008C0D095DE23DC938FBFDF91CF911F9101
:100490000895DE2BF8CF862F642F0C941D02CF9386
:1004A000DF9390E0FC01E656FF4F24918A579F4F5F
:1004B000FC0184918823C9F090E0880F991FFC010A
:1004C000E859FF4FA591B491FC01EE58FF4FC5913B
:1004D000D49161110DC09FB7F8948C91209582231F
:1004E0008C938881282328839FBFDF91CF91089523
:1004F000623051F49FB7F8943C91822F809583230A
:100500008C93E8812E2BEFCF8FB7F894EC912E2BA4
:100510002C938FBFEACF862F642F0C944F023FB7E6
:10052000F8948091010290910202A0910302B0918F
:10053000040226B5A89B05C02F3F19F00196A11D06
:10054000B11D3FBFBA2FA92F982F8827BC01CD011D
:10055000620F711D811D911D42E0660F771F881F7C
:10056000991F4A95D1F708958F929F92AF92BF92AB
:10057000CF92DF92EF92FF924B015C010E948F02BB
:100580006B017C010E948F026C197D098E099F0905
:10059000683E734081059105A8F321E0821A910815
:1005A000A108B10888EEC80E83E0D81EE11CF11C3A
:1005B00081149104A104B10429F7FF90EF90DF901A
:1005C000CF90BF90AF909F908F900895089590E046
:1005D00080E00895FC0101900020E9F73197AF0118
:1005E000481B590BBC0183EA92E00C949B010C94CC
:1005F000EA02CF93DF930E94EA02EC0189E291E0E4
:100600000E94EA028C0F9D1FDF91CF910895CF9336
:10061000DF93EC0160E08E810E941D0261E08E811B
:100620000E941D0260E08E810E941D028BE891E015
:100630000197F1F7DF91CF910895CF92DF92EF927A
:10064000FF920F931F93CF93DF936C017C0187E0A0
:10065000E80EF11CD0E0C0E0062F10E0B8010C2E2F
:1006600002C0759567950A94E2F76170F701819170
:100670007F010E941D022196C430D10579F7C60181
:10068000DF91CF911F910F91FF90EF90DF90CF906E
:100690000C940703CF92DF92EF92FF920F931F9378
:1006A000CF93DF93EC01F62E642F8C810E941D0204
:1006B0008D818F3F19F060E00E941D020F2D10E028
:1006C0008F8584FF25C06E0187E0C80ED11CF12CF8
:1006D000E12CB8010E2C02C0759567950A94E2F7DB
:1006E0006170F60181916F010E941D02FFEFEF1A08
:1006F000FF0A88E0E816F10461F7CE01DF91CF919F
:100700001F910F91FF90EF90DF90CF900C94070313
:10071000B80184E0759567958A95E1F7CE010E944E
:100720001D036F2DCE01DF91CF911F910F91FF908F
:10073000EF90DF90CF900C941D0340E0682F83EA88
:1007400092E00C944A0381E00E949D038BE39FE1B9
:100750000197F1F70895CF93DF93823029F49091B8
:10076000B20298609093B2028093B6021092B702E0
:1007700080E48093B80280E18093B90280E58093A1
:10078000BA0261E08091A7020E944F028091A80204
:100790008F3F19F061E00E944F0261E08091A90251
:1007A0000E944F02C3EAD2E09E01235A3240809158
:1007B000B20284FD0BC084E090E02196281739072F
:1007C00044F461E08E810E944F02EECF88E090E019
:1007D000F4CF8BE39DE00197F1F760E08091A702F1
:1007E0000E941D0260E08091A9020E941D0280917A
:1007F000A8028F3F19F060E00E941D028091B202B2
:1008000084FD34C063E083EA92E00E941D03CBE4E0
:10081000D6E4CE010197F1F763E083EA92E00E940B
:100820001D032197F1F763E083EA92E00E941D0324
:1008300083E592E00197F1F762E083EA92E00E949B
:100840001D038091B20280620E949D0384E0809328
:10085000B3028CE00E949D030E94A30382E0809378
:10086000B40286E0DF91CF910C949D0380620E94D8
:100870009D038BE496E40197F1F78091B2028062C8
:100880000E949D0383E592E00197F1F78091B20207
:1008900080620E949D03D5CF9091B602691710F037
:1008A0006FEF690FE62FF0E0ED55FD4F9489890F4A
:1008B00080680C949D0360E080E00E944C048CE210
:1008C00091E00E94F90261E081E00E944C048DE316
:1008D00091E00C94F90241E00E944A0381E090E02B
:1008E00008951F920F920FB60F9211242F933F93EA
:1008F0008F939F93AF93BF938091090290910A02C7
:10090000A0910B02B0910C023091000223E0230F62
:100910002D3758F50196A11DB11D2093000280933B
:10092000090290930A02A0930B02B0930C028091EB
:10093000010290910202A0910302B091040201967B
:10094000A11DB11D8093010290930202A0930302A6
:10095000B0930402BF91AF919F918F913F912F91DE
:100960000F900FBE0F901F90189526E8230F029648
:10097000A11DB11DD2CF1F920F920FB60F9211245D
:100980002F933F934F935F936F937F938F939F9397
:10099000AF93BF93CF93DF93EF93FF938091FF01CA
:1009A000C091FE01D0E087FF24C010928500109214
:1009B00084008091FF018F5F8093FF018091FF0190
:1009C000082E000C990B8C179D0724F48091FF01D1
:1009D0008C30C4F18091840090918500049680341D
:1009E0009C4908F47AC08091840090918500049617
:1009F00076C08091FF01082E000C990B8C179D0783
:100A0000C4F6E091FF018E2FEE0F990BFC01EE0F63
:100A1000FF1FE80FF91FE458FD4F808186FFC9CF03
:100A2000E091FF018E2FEE0F990BFC01EE0FFF1FDF
:100A3000E80FF91FE458FD4F808160E08F730E943A
:100A40001D02B7CF2091840030918500E091FF0115
:100A50008E2FEE0F990BFC01EE0FFF1FE80FF91F11
:100A6000E458FD4F81819281820F931F90938900FA
:100A700080938800E091FF018E2FEE0F990BFC010F
:100A8000EE0FFF1FE80FF91FE458FD4F808186FF2E
:100A900011C0E091FF018E2FEE0F990BFC01EE0FBC
:100AA000FF1FE80FF91FE458FD4F808161E08F734D
:100AB0000E941D02FF91EF91DF91CF91BF91AF9105
:100AC0009F918F917F916F915F914F913F912F9166
:100AD0000F900FBE0F901F90189580E49CE99093A3
:100AE0008900809388008FEF8093FF01E3CF789493
:100AF00084B5826084BD84B5816084BD85B5826023
:100B000085BD85B5816085BD80916E0081608093D3
:100B10006E0010928100809181008260809381003C
:100B2000809181008160809381008091800081604C
:100B3000809380008091B10084608093B1008091A7
:100B4000B00081608093B00080917A0084608093CF
:100B50007A0080917A00826080937A0080917A0096
:100B6000816080937A0080917A00806880937A0017
:100B70001092C10061E08DE00E944F0261E08CE0C4
:100B80000E944F028091A0028C3008F051C061E0B9
:100B900089E00E944F028091A002282F30E0F901E5
:100BA000EE0FFF1FE20FF31FE458FD4F9081907C82
:100BB000996090831092A1021092A2022CE0622F01
:100BC0000E94BA0A829FB001112430E020E0AB01FC
:100BD000420F531FFA01EE0FFF1FE40FF51FE458F9
:100BE000FD4F908196FD16C02F5F3F4F2C30310591
:100BF00071F781110FC01092800082E08093810014
:100C00001092850010928400B19A80916F008260EA
:100C100080936F00E091A0028E2F90E0FC01EE0F18
:100C2000FF1FE80FF91FE458FD4F80818064808327
:100C300082E00E94AB030E94A30360E080E00E9478
:100C40004C048BE491E00E94F70261E080E00E9496
:100C50004C0489E591E00E94F70260ED77E080E0C6
:100C600090E00E94B4020E94A303812C912C5401B5
:100C7000839440E0442E40E0542E54EB652E712CBA
:100C80008091070290910802892B11F40E945B0465
:100C900051E0509379028FB7F89440910902509136
:100CA0000A0260910B0270910C028FBF8091690261
:100CB00090916A02A0916B02B0916C02481B590B93
:100CC0006A0B7B0B8091750290917602B0E0A0E0F8
:100CD00084179507A607B70708F012C1C0E08091F6
:100CE0007302C81760F4E0916F02F0917002EC0F8C
:100CF000F11D62E080810E944F02CF5FF0CF312C66
:100D000080917402381608F05FC0032D10E0E09166
:100D10007102F0917202E00FF11F61E080810E9488
:100D20004F02E0917102F0917202E00FF11F60E05A
:100D300080810E941D02D501C401032C04C0880FCC
:100D4000991FAA1FBB1F0A94D2F76C017C01E09483
:100D5000F094212C809173022816F8F4C22DD0E073
:100D6000E0916F02F0917002EC0FFD1F80810E94F4
:100D7000F1012496CC0FDD1FC35FDD4F892B41F4B9
:100D8000888199818C299D29998388832394E2CF36
:100D9000888199818E219F21F7CFE0917102F09196
:100DA0007202E00FF11F61E080810E941D028091BC
:100DB000710290917202080F191F60E0F8018081A2
:100DC0000E944F0233949CCFCDE0D2E0FE01878D8C
:100DD00090A1892B31F4148E8FEF9FEF968F858F22
:100DE00011A2369692E0E934F90789F7F12C809147
:100DF0007302F81608F051C0E12C0F2D10E0000F1F
:100E0000111F0B5E1D4F20917402E21608F043C0C3
:100E1000F801608171810E2C02C0769567950A9465
:100E2000E2F7F29E900111242E0D311DEDE0F2E06B
:100E300080E0458D568D2417350709F4A3C28F5FD6
:100E400036968A30B1F760FF24C0EDE0F2E090E022
:100E500080E0448D411118C0E0916D02F0916E0266
:100E6000E20FF31F408156E0589FF001599FF00DAB
:100E70001124E35FFD4F448F368F258F10A2178E0C
:100E800061E00E942B0105C0019636968A309105DB
:100E900001F7E394B8CFF394AACF80E099A1911120
:100EA000892F269692E0C934D907C1F79FB7F894E5
:100EB0004091090250910A0260910B0270910C025C
:100EC0009FBF4093690250936A0260936B027093D4
:100ED0006C028823A9F080912E02882389F08091EA
:100EE0002C0290912D02019759F4109129021111B1
:100EF0000AC04114510409F4C3CE0E940000C0CEC0
:100F000010927902F6CF0E94A30360E080E00E9475
:100F10004C048CE691E00E94F70261E087E00E94B9
:100F20004C0489E491E00E94F70261E087E00E94AE
:100F30004C04D0E0C0E080910702909108028C1729
:100F40009D0734F08BE391E00E94F7022196F3CFE6
:100F5000FC01EA58FE4F20812113CFC101969093E6
:100F6000080280930702049721F661E08CE00E945A
:100F70001D0268EE73E080E090E00E94B40260E041
:100F80008CE00E941D0264E873E080E090E00E9423
:100F9000B40260E080E00E944C0489E491E00E9489
:100FA000F90260E081E00E944C048BE791E00E942E
:100FB000F70261E084E00E944C048AE891E00E941C
:100FC000F90261E08FE00E944C0489E491E00E9404
:100FD000F90261E080E10E944C0489E491E00E9402
:100FE000F90261E08EE00E944C0489E491E00E94E5
:100FF000F90261E08DE00E944C0489E491E00E94D6
:10100000F9021092060210920502C0910502D091D9
:101010000602C53BD1057CF4CE010E948C0065E040
:1010200070E080E090E00E94B4022596D093060222
:10103000C0930502EACF60ED77E080E090E00E9487
:10104000B40268EE73E080E090E00E94B40260EBCE
:1010500074E080E090E00E94B4020E94A30360E08C
:1010600082E00E944C0468EC70E080E090E00E9416
:10107000B40284E991E00E94F90261E084E00E94F8
:101080004C0485EA91E00E94F70268EC70E080E091
:1010900090E00E94B4020E94A30360E082E00E94FC
:1010A0004C0487EA91E00E94F90268EE73E080E068
:1010B00090E00E94B40260E082E00E944C0487EA63
:1010C00091E00E94F90261E084E00E944C0486EB0A
:1010D00091E00E94F70264E670E080E090E00E94F8
:1010E000B4020E94A30360E082E00E944C0487EAFD
:1010F00091E00E94F90268EE73E080E090E00E94C7
:10110000B40260E082E00E944C0487EA91E00E9411
:10111000F90261E084E00E944C0488EB91E00E94B7
:10112000F70264E670E080E090E00E94B4020E9462
:10113000A30360E082E00E944C0487EA91E00E94F1
:10114000F90268EE73E080E090E00E94B40260E093
:1011500082E00E944C0487EA91E00E94F90261E07B
:1011600084E00E944C048AEB91E00E94F70264E65E
:1011700070E080E090E00E94B4020E94A30360E06F
:1011800082E00E944C0487EA91E00E94F90268EE36
:1011900073E080E090E00E94B40261E084E00E948D
:1011A0004C0489E791E00E94F70264E670E080E079
:1011B00090E00E94B4020E94A30360E082E00E94DB
:1011C0004C048CEB91E00E94F90261E084E00E9403
:1011D0004C048CEC91E00E94F70264E670E080E041
:1011E00090E00E94B4020E94A30360E082E00E94AB
:1011F0004C048CEB91E00E94F90268EE73E080E011
:1012000090E00E94B40268E270E080E090E00E940A
:10121000B4020E94A30360E082E00E944C048EECC2
:1012200091E00E94F70264EF71E080E090E00E949C
:10123000B40260E08CE00E944C0489ED91E00E94D1
:10124000F70264EF71E080E090E00E94B40260E099
:101250008DE00E944C0489ED91E00E94F70264EF5A
:1012600071E080E090E00E94B40260E08EE00E94B5
:101270004C0489ED91E00E94F70260E971E080E0A2
:1012800090E00E94B4020E94A30360E084E00E9408
:101290004C048BED91E00E94F70268EB71E080E076
:1012A00090E00E94B40268EE73E080E090E00E945B
:1012B000B40270920602609205028091050290913C
:1012C000060297FD5AC00E948C006FE070E080E03B
:1012D00090E00E94B40210920802109207020E944D
:1012E000A3030E945B04809105029091060205977A
:1012F0009093060280930502E0CF61E08DE00E94AA
:101300001D0268EE73E080E090E00E94B40260E0AD
:101310008DE00E941D0264EF71E080E090E00E9489
:10132000B4020E94A30360E081E00E944C0483EEBB
:1013300091E00E94F70260E086E00E944C0488EE93
:1013400091E00E94F70261E08FE00E944C0489E482
:1013500091E00E94F90261E083E00E944C0482EF78
:1013600091E00E94F90268EB7BE080E090E00E944F
:10137000B4020E94A3030E945B0410920802109220
:101380000702B7CD61707DCD8091FE018C3008F0F1
:101390008AC091E0980F9093FE018093A00290E0A4
:1013A000FC01EE0FFF1FE80FF91FE458FD4F88EB1B
:1013B0009BE0928381831092A6021092A50281E2A3
:1013C00091E09093A4028093A30283E18093A7020B
:1013D0008FEF8093A80282E18093A90281E180933C
:1013E000AA0280E18093AB028FE08093AC028EE092
:1013F0008093AD021092AE021092AF021092B00232
:101400001092B1021092B20281E00E94AB031092DE
:101410000F0210921302109212021092140287E12E
:1014200091E090930E0280930D02E9E2F2E01082C7
:10143000148213821582369682E0E536F807B9F7F2
:1014400083E091E09093700280936F0280E091E0DE
:10145000909372028093710284E08093730283E020
:101460008093740287E091E090936E0280936D0206
:101470008AE090E0909376028093750284EF91E089
:10148000909378028093770210927B0210927A02F6
:101490001092690210926A0210926B0210926C0212
:1014A0001092790208958FEF8093A00284CF052EC9
:1014B00097FB1EF400940E946E0A57FD07D00E940D
:1014C000890A07FC03D04EF40C946E0A509540959F
:1014D000309521953F4F4F4F5F4F089590958095E0
:1014E000709561957F4F8F4F9F4F08950E94AB0A73
:1014F000A59F900DB49F900DA49F800D911D112468
:101500000895B7FF0C94760A0E94760A821B930B0B
:101510000895A1E21A2EAA1BBB1BFD010DC0AA1F34
:10152000BB1FEE1FFF1FA217B307E407F50720F04C
:10153000A21BB30BE40BF50B661F771F881F991FC7
:101540001A9469F760957095809590959B01AC0110
:10155000BD01CF010895A29FB001B39FC001A39F19
:10156000700D811D1124911DB29F700D811D1124DC
:10157000911D0895991B79E004C0991F961708F0F2
:10158000961B881F7A95C9F780950895EE0FFF1F67
:0C1590000590F491E02D0994F894FFCF31
:10159C00040506000102033132333435363738394D
:1015AC002A3023000000008B024B021A02000000BC
:1015BC00006B049B01E702E6020D0A002A454E541B
:1015CC0045522054484520434F44452A00544F204F
:1015DC004F50454E20444F4F52200020524F424F07
:1015EC00205245464C4558200020536D61722044D2
:1015FC006F6F72204C6F636B6564200050415353C6
:10160C00574F52443A0035323731004163636573AA
:10161C0073204772616E7465640057454C434F4D9F
:10162C004521210047455420494E205749544849EB
:10163C004E3A3A3A00350047455420494E20574916
:10164C005448494E3A003400330032004745542088
:10165C00494E2057495448494E3A3A0030005245B9
:10166C002D4C4F434B494E47002E004C4F434B459E
:10167C00442100434F444500494E434F5252454389
:0E168C0054002047455420415741592000008A
:00000001FF
